:1000000000308A0063280000FF00030E8301A10076
:100010000A08A0008A010408A2007708A300780853
:10002000A4007908A5007A08A600831383120B1E8A
:100030001B288B182C28220884002308F70024088A
:10004000F8002508F9002608FA0020088A00210E89
:100050008300FF0E7F0E09008A110A122F288316D3
:1000600006110430831286068B108A110A121B288F
:1000700001308316860086108312861083160611BF
:100080008312061183168113011383120B16C030DD
:100090008B048A110A127028283084008313000808
:1000A000031960280130F800F701F70B5528F80B09
:1000B00054284A30F700F70B5B285E28800B522843
:1000C0008A110A12792803081F39830083161F1426
:1000D0009F141F159F1107309C008313831238282B
:1000E00083168610023083128606A700FA30A80015
:0A00F0004C28A70B76287028630047
:02400E00393F38
:00000001FF
;PIC16F877A
;CRC=6838  CREATED="29-May-25 23:59"
